{
  "contractName": "EscrowManager",
  "abi": [
    {
      "inputs": [],
      "stateMutability": "nonpayable",
      "type": "constructor"
    },
    {
      "inputs": [
        {
          "internalType": "uint256",
          "name": "",
          "type": "uint256"
        }
      ],
      "name": "escrows",
      "outputs": [
        {
          "internalType": "address",
          "name": "buyer",
          "type": "address"
        },
        {
          "internalType": "address payable",
          "name": "seller",
          "type": "address"
        },
        {
          "internalType": "uint256",
          "name": "amount",
          "type": "uint256"
        },
        {
          "internalType": "bool",
          "name": "isDelivered",
          "type": "bool"
        }
      ],
      "stateMutability": "view",
      "type": "function",
      "constant": true
    },
    {
      "inputs": [],
      "name": "nextEscrowId",
      "outputs": [
        {
          "internalType": "uint256",
          "name": "",
          "type": "uint256"
        }
      ],
      "stateMutability": "view",
      "type": "function",
      "constant": true
    },
    {
      "inputs": [],
      "name": "owner",
      "outputs": [
        {
          "internalType": "address",
          "name": "",
          "type": "address"
        }
      ],
      "stateMutability": "view",
      "type": "function",
      "constant": true
    },
    {
      "inputs": [
        {
          "internalType": "address",
          "name": "_buyer",
          "type": "address"
        },
        {
          "internalType": "address payable",
          "name": "_seller",
          "type": "address"
        }
      ],
      "name": "createEscrow",
      "outputs": [],
      "stateMutability": "payable",
      "type": "function",
      "payable": true
    },
    {
      "inputs": [
        {
          "internalType": "uint256",
          "name": "_escrowId",
          "type": "uint256"
        }
      ],
      "name": "confirmDelivery",
      "outputs": [],
      "stateMutability": "nonpayable",
      "type": "function"
    }
  ],
  "bytecode": "0x608060405234801561001057600080fd5b50336000806101000a81548173ffffffffffffffffffffffffffffffffffffffff021916908373ffffffffffffffffffffffffffffffffffffffff160217905550610859806100606000396000f3fe60806040526004361061004a5760003560e01c8063012f52ee1461004f578063834cc6fc1461008f57806389cb29dd146100ab5780638da5cb5b146100d6578063fd84cb9714610101575b600080fd5b34801561005b57600080fd5b50610076600480360381019061007191906104d1565b61012a565b604051610086949392919061058a565b60405180910390f35b6100a960048036038101906100a49190610627565b6101a7565b005b3480156100b757600080fd5b506100c06102e5565b6040516100cd9190610667565b60405180910390f35b3480156100e257600080fd5b506100eb6102eb565b6040516100f89190610682565b60405180910390f35b34801561010d57600080fd5b50610128600480360381019061012391906104d1565b61030f565b005b60016020528060005260406000206000915090508060000160009054906101000a900473ffffffffffffffffffffffffffffffffffffffff16908060010160009054906101000a900473ffffffffffffffffffffffffffffffffffffffff16908060020154908060030160009054906101000a900460ff16905084565b6000600260008154809291906101bc906106cc565b91905055905060405180608001604052808473ffffffffffffffffffffffffffffffffffffffff1681526020018373ffffffffffffffffffffffffffffffffffffffff168152602001348152602001600015158152506001600083815260200190815260200160002060008201518160000160006101000a81548173ffffffffffffffffffffffffffffffffffffffff021916908373ffffffffffffffffffffffffffffffffffffffff16021790555060208201518160010160006101000a81548173ffffffffffffffffffffffffffffffffffffffff021916908373ffffffffffffffffffffffffffffffffffffffff1602179055506040820151816002015560608201518160030160006101000a81548160ff021916908315150217905550905050505050565b60025481565b60008054906101000a900473ffffffffffffffffffffffffffffffffffffffff1681565b60008054906101000a900473ffffffffffffffffffffffffffffffffffffffff1673ffffffffffffffffffffffffffffffffffffffff163373ffffffffffffffffffffffffffffffffffffffff161461039d576040517f08c379a000000000000000000000000000000000000000000000000000000000815260040161039490610797565b60405180910390fd5b60006001600083815260200190815260200160002090508060030160009054906101000a900460ff1615610406576040517f08c379a00000000000000000000000000000000000000000000000000000000081526004016103fd90610803565b60405180910390fd5b60018160030160006101000a81548160ff0219169083151502179055508060010160009054906101000a900473ffffffffffffffffffffffffffffffffffffffff1673ffffffffffffffffffffffffffffffffffffffff166108fc82600201549081150290604051600060405180830381858888f19350505050158015610491573d6000803e3d6000fd5b505050565b600080fd5b6000819050919050565b6104ae8161049b565b81146104b957600080fd5b50565b6000813590506104cb816104a5565b92915050565b6000602082840312156104e7576104e6610496565b5b60006104f5848285016104bc565b91505092915050565b600073ffffffffffffffffffffffffffffffffffffffff82169050919050565b6000610529826104fe565b9050919050565b6105398161051e565b82525050565b600061054a826104fe565b9050919050565b61055a8161053f565b82525050565b6105698161049b565b82525050565b60008115159050919050565b6105848161056f565b82525050565b600060808201905061059f6000830187610530565b6105ac6020830186610551565b6105b96040830185610560565b6105c6606083018461057b565b95945050505050565b6105d88161051e565b81146105e357600080fd5b50565b6000813590506105f5816105cf565b92915050565b6106048161053f565b811461060f57600080fd5b50565b600081359050610621816105fb565b92915050565b6000806040838503121561063e5761063d610496565b5b600061064c858286016105e6565b925050602061065d85828601610612565b9150509250929050565b600060208201905061067c6000830184610560565b92915050565b60006020820190506106976000830184610530565b92915050565b7f4e487b7100000000000000000000000000000000000000000000000000000000600052601160045260246000fd5b60006106d78261049b565b91507fffffffffffffffffffffffffffffffffffffffffffffffffffffffffffffffff82036107095761070861069d565b5b600182019050919050565b600082825260208201905092915050565b7f4f6e6c7920746865206f776e65722063616e20636f6e6669726d2064656c697660008201527f6572792e00000000000000000000000000000000000000000000000000000000602082015250565b6000610781602483610714565b915061078c82610725565b604082019050919050565b600060208201905081810360008301526107b081610774565b9050919050565b7f44656c697665727920616c726561647920636f6e6669726d65642e0000000000600082015250565b60006107ed601b83610714565b91506107f8826107b7565b602082019050919050565b6000602082019050818103600083015261081c816107e0565b905091905056fea2646970667358221220a414b9c021938d51e60b713b67ea9e055a244f22f037d0f3a398964d021465c264736f6c63430008150033",
  "immutableReferences": {},
  "source": "pragma solidity ^0.8.0;\r\n\r\ncontract EscrowManager {\r\n    address public owner;\r\n    \r\n    // Structure to store escrow details (removed deliveryAgent)\r\n    struct Escrow {\r\n        address buyer;\r\n        address payable seller;\r\n        uint amount;\r\n        bool isDelivered;\r\n    }\r\n\r\n    // Mapping to store all escrows by a unique ID\r\n    mapping(uint256 => Escrow) public escrows;\r\n    uint256 public nextEscrowId;\r\n\r\n    // Set the deployer as the contract owner\r\n    constructor() {\r\n        owner = msg.sender;\r\n    }\r\n    \r\n    // Create a new escrow agreement without a delivery agent\r\n    function createEscrow(address _buyer, address payable _seller) public payable {\r\n        uint256 escrowId = nextEscrowId++;\r\n        escrows[escrowId] = Escrow(_buyer, _seller, msg.value, false);\r\n    }\r\n    \r\n    // Confirm delivery and release funds; only the owner (deployer) can confirm\r\n    function confirmDelivery(uint256 _escrowId) public {\r\n        require(msg.sender == owner, \"Only the owner can confirm delivery.\");\r\n        Escrow storage escrow = escrows[_escrowId];\r\n        require(!escrow.isDelivered, \"Delivery already confirmed.\");\r\n        escrow.isDelivered = true;\r\n        escrow.seller.transfer(escrow.amount);\r\n    }\r\n}\r\n",
  "sourcePath": "C:\\Users\\Abhal\\Music\\project\\contracts\\Escrow.sol",
  "compiler": {
    "name": "solc",
    "version": "0.8.21+commit.d9974bed.Emscripten.clang"
  },
  "schemaVersion": "3.4.16",
  "updatedAt": "2025-04-11T09:43:53.884Z",
  "networkType": "ethereum",
  "devdoc": {
    "kind": "dev",
    "methods": {},
    "version": 1
  },
  "userdoc": {
    "kind": "user",
    "methods": {},
    "version": 1
  }
}